nmap compeng4dn4.mooo.com -Pn -sT -p 50009
Starting Nmap 7.93 ( https://nmap.org ) at 2023-02-12 00:02 Eastern Standard Time
Nmap scan report for compeng4dn4.mooo.com (99.236.34.223)
Host is up.
rDNS record for 99.236.34.223: cpe382c4a5bff48-cm00fc8db8cbb0.cpe.net.cable.rogers.com

PORT      STATE    SERVICE
50009/tcp filtered unknown

Nmap done: 1 IP address (1 host up) scanned in 2.12 seconds


windump -nnvvX -i 3 -S host compeng4dn4.mooo.com
C:\WinDump\WinDump.exe: listening on \Device\NPF_{F3023D06-108F-4190-A8B5-7A0A1D9213BD}
00:02:38.981537 IP (tos 0x0, ttl 255, id 57894, offset 0, flags [DF], proto: TCP (6), length: 52, bad cksum 0 (->4ff8)!) 192.168.2.49.46095 > 99.236.34.223.50009: S, cksum 0x49cb (incorrect (-> 0x9997), 3332395737:3332395737(0) win 64240 <mss 1460,nop,wscale 8,nop,nop,sackOK>
        0x0000:  4500 0034 e226 4000 ff06 0000 c0a8 0231  E..4.&@........1
        0x0010:  63ec 22df b40f c359 c6a0 52d9 0000 0000  c."....Y..R.....
        0x0020:  8002 faf0 49cb 0000 0204 05b4 0103 0308  ....I...........
        0x0030:  0101 0402                                ....
00:02:38.981542 IP (tos 0x0, ttl 255, id 57894, offset 0, flags [DF], proto: TCP (6), length: 52, bad cksum 0 (->4ff8)!) 192.168.2.49.46095 > 99.236.34.223.50009: S, cksum 0x49cb (incorrect (-> 0x9997), 3332395737:3332395737(0) win 64240 <mss 1460,nop,wscale 8,nop,nop,sackOK>
        0x0000:  4500 0034 e226 4000 ff06 0000 c0a8 0231  E..4.&@........1
        0x0010:  63ec 22df b40f c359 c6a0 52d9 0000 0000  c."....Y..R.....
        0x0020:  8002 faf0 49cb 0000 0204 05b4 0103 0308  ....I...........
        0x0030:  0101 0402                                ....
00:02:39.996412 IP (tos 0x0, ttl 255, id 57895, offset 0, flags [DF], proto: TCP (6), length: 52, bad cksum 0 (->4ff7)!) 192.168.2.49.46096 > 99.236.34.223.50009: S, cksum 0x49cb (incorrect (-> 0x1d34), 2176586784:2176586784(0) win 64240 <mss 1460,nop,wscale 8,nop,nop,sackOK>
        0x0000:  4500 0034 e227 4000 ff06 0000 c0a8 0231  E..4.'@........1
        0x0010:  63ec 22df b410 c359 81bc 1420 0000 0000  c."....Y........
        0x0020:  8002 faf0 49cb 0000 0204 05b4 0103 0308  ....I...........
        0x0030:  0101 0402                                ....
00:02:39.996419 IP (tos 0x0, ttl 255, id 57895, offset 0, flags [DF], proto: TCP (6), length: 52, bad cksum 0 (->4ff7)!) 192.168.2.49.46096 > 99.236.34.223.50009: S, cksum 0x49cb (incorrect (-> 0x1d34), 2176586784:2176586784(0) win 64240 <mss 1460,nop,wscale 8,nop,nop,sackOK>
        0x0000:  4500 0034 e227 4000 ff06 0000 c0a8 0231  E..4.'@........1
        0x0010:  63ec 22df b410 c359 81bc 1420 0000 0000  c."....Y........
        0x0020:  8002 faf0 49cb 0000 0204 05b4 0103 0308  ....I...........
        0x0030:  0101 0402                                ....

4 packets captured
874 packets received by filter
0 packets dropped by kernel