nmap compeng4dn4.mooo.com -Pn -sS -p 50009
Starting Nmap 7.93 ( https://nmap.org ) at 2023-02-12 00:06 Eastern Standard Time
Nmap scan report for compeng4dn4.mooo.com (99.236.34.223)
Host is up.
rDNS record for 99.236.34.223: cpe382c4a5bff48-cm00fc8db8cbb0.cpe.net.cable.rogers.com

PORT      STATE    SERVICE
50009/tcp filtered unknown

Nmap done: 1 IP address (1 host up) scanned in 2.24 seconds


windump -nnvvX -i 3 -S host compeng4dn4.mooo.com
C:\WinDump\WinDump.exe: listening on \Device\NPF_{F3023D06-108F-4190-A8B5-7A0A1D9213BD}
00:06:16.728549 IP (tos 0x0, ttl  49, id 44735, offset 0, flags [none], proto: TCP (6), length: 44) 192.168.2.49.50206 > 99.236.34.223.50009: S, cksum 0xbfc5 (correct), 4086566831:4086566831(0) win 1024 <mss 1460>
        0x0000:  4500 002c aebf 0000 3106 9168 c0a8 0231  E..,....1..h...1
        0x0010:  63ec 22df c41e c359 f394 0faf 0000 0000  c."....Y........
        0x0020:  6002 0400 bfc5 0000 0204 05b4            `...........
00:06:16.728562 IP (tos 0x0, ttl  49, id 44735, offset 0, flags [none], proto: TCP (6), length: 44) 192.168.2.49.50206 > 99.236.34.223.50009: S, cksum 0xbfc5 (correct), 4086566831:4086566831(0) win 1024 <mss 1460>
        0x0000:  4500 002c aebf 0000 3106 9168 c0a8 0231  E..,....1..h...1
        0x0010:  63ec 22df c41e c359 f394 0faf 0000 0000  c."....Y........
        0x0020:  6002 0400 bfc5 0000 0204 05b4            `...........
00:06:17.737385 IP (tos 0x0, ttl  49, id 36965, offset 0, flags [none], proto: TCP (6), length: 44) 192.168.2.49.50208 > 99.236.34.223.50009: S, cksum 0xbfc3 (correct), 4086697901:4086697901(0) win 1024 <mss 1460>
        0x0000:  4500 002c 9065 0000 3106 afc2 c0a8 0231  E..,.e..1......1
        0x0010:  63ec 22df c420 c359 f396 0fad 0000 0000  c."....Y........
        0x0020:  6002 0400 bfc3 0000 0204 05b4            `...........
00:06:17.737405 IP (tos 0x0, ttl  49, id 36965, offset 0, flags [none], proto: TCP (6), length: 44) 192.168.2.49.50208 > 99.236.34.223.50009: S, cksum 0xbfc3 (correct), 4086697901:4086697901(0) win 1024 <mss 1460>
        0x0000:  4500 002c 9065 0000 3106 afc2 c0a8 0231  E..,.e..1......1
        0x0010:  63ec 22df c420 c359 f396 0fad 0000 0000  c."....Y........
        0x0020:  6002 0400 bfc3 0000 0204 05b4            `...........

4 packets captured
679 packets received by filter
0 packets dropped by kernel