nmap compeng4dn4.mooo.com -Pn -sS -p 50007
Starting Nmap 7.93 ( https://nmap.org ) at 2023-02-11 23:54 Eastern Standard Time
Nmap scan report for compeng4dn4.mooo.com (99.236.34.223)
Host is up (0.027s latency).
rDNS record for 99.236.34.223: cpe382c4a5bff48-cm00fc8db8cbb0.cpe.net.cable.rogers.com

PORT      STATE SERVICE
50007/tcp open  unknown

Nmap done: 1 IP address (1 host up) scanned in 0.25 seconds


windump -nnvvX -i 3 -S host compeng4dn4.mooo.com
C:\WinDump\WinDump.exe: listening on \Device\NPF_{F3023D06-108F-4190-A8B5-7A0A1D9213BD}
23:54:54.893762 IP (tos 0x0, ttl  52, id 58336, offset 0, flags [none], proto: TCP (6), length: 44) 192.168.2.49.56229 > 99.236.34.223.50007: S, cksum 0x42b8 (correct), 3554710763:3554710763(0) win 1024 <mss 1460>
        0x0000:  4500 002c e3e0 0000 3406 5947 c0a8 0231  E..,....4.YG...1
        0x0010:  63ec 22df dba5 c357 d3e0 94eb 0000 0000  c."....W........
        0x0020:  6002 0400 42b8 0000 0204 05b4            `...B.......
23:54:54.893775 IP (tos 0x0, ttl  52, id 58336, offset 0, flags [none], proto: TCP (6), length: 44) 192.168.2.49.56229 > 99.236.34.223.50007: S, cksum 0x42b8 (correct), 3554710763:3554710763(0) win 1024 <mss 1460>
        0x0000:  4500 002c e3e0 0000 3406 5947 c0a8 0231  E..,....4.YG...1
        0x0010:  63ec 22df dba5 c357 d3e0 94eb 0000 0000  c."....W........
        0x0020:  6002 0400 42b8 0000 0204 05b4            `...B.......
23:54:54.920133 IP (tos 0x0, ttl  53, id 0, offset 0, flags [DF], proto: TCP (6), length: 44) 99.236.34.223.50007 > 192.168.2.49.56229: S, cksum 0xeac1 (correct), 3244728213:3244728213(0) ack 3554710764 win 64240 <mss 1452>
        0x0000:  4500 002c 0000 4000 3506 fc27 63ec 22df  E..,..@.5..'c.".
        0x0010:  c0a8 0231 c357 dba5 c166 9f95 d3e0 94ec  ...1.W...f......
        0x0020:  6012 faf0 eac1 0000 0204 05ac 0000       `.............
23:54:55.950338 IP (tos 0x0, ttl  53, id 0, offset 0, flags [DF], proto: TCP (6), length: 44) 99.236.34.223.50007 > 192.168.2.49.56229: S, cksum 0xeac1 (correct), 3244728213:3244728213(0) ack 3554710764 win 64240 <mss 1452>
        0x0000:  4500 002c 0000 4000 3506 fc27 63ec 22df  E..,..@.5..'c.".
        0x0010:  c0a8 0231 c357 dba5 c166 9f95 d3e0 94ec  ...1.W...f......
        0x0020:  6012 faf0 eac1 0000 0204 05ac 0000       `.............
23:54:57.966846 IP (tos 0x0, ttl  53, id 0, offset 0, flags [DF], proto: TCP (6), length: 44) 99.236.34.223.50007 > 192.168.2.49.56229: S, cksum 0xeac1 (correct), 3244728213:3244728213(0) ack 3554710764 win 64240 <mss 1452>
        0x0000:  4500 002c 0000 4000 3506 fc27 63ec 22df  E..,..@.5..'c.".
        0x0010:  c0a8 0231 c357 dba5 c166 9f95 d3e0 94ec  ...1.W...f......
        0x0020:  6012 faf0 eac1 0000 0204 05ac 0000       `.............
23:55:02.126605 IP (tos 0x0, ttl  53, id 0, offset 0, flags [DF], proto: TCP (6), length: 44) 99.236.34.223.50007 > 192.168.2.49.56229: S, cksum 0xeac1 (correct), 3244728213:3244728213(0) ack 3554710764 win 64240 <mss 1452>
        0x0000:  4500 002c 0000 4000 3506 fc27 63ec 22df  E..,..@.5..'c.".
        0x0010:  c0a8 0231 c357 dba5 c166 9f95 d3e0 94ec  ...1.W...f......
        0x0020:  6012 faf0 eac1 0000 0204 05ac 0000       `.............
23:55:05.199636 IP (tos 0x0, ttl  53, id 0, offset 0, flags [DF], proto: TCP (6), length: 44) 99.236.34.223.50007 > 192.168.2.49.64000: S, cksum 0x7462 (correct), 773774464:773774464(0) ack 2880072580 win 64240 <mss 1452>
        0x0000:  4500 002c 0000 4000 3506 fc27 63ec 22df  E..,..@.5..'c.".
        0x0010:  c0a8 0231 c357 fa00 2e1e dc80 abaa 6b84  ...1.W........k.
        0x0020:  6012 faf0 7462 0000 0204 05ac 0000       `...tb........
23:55:10.316433 IP (tos 0x0, ttl  53, id 0, offset 0, flags [DF], proto: TCP (6), length: 44) 99.236.34.223.50007 > 192.168.2.49.56229: S, cksum 0xeac1 (correct), 3244728213:3244728213(0) ack 3554710764 win 64240 <mss 1452>
        0x0000:  4500 002c 0000 4000 3506 fc27 63ec 22df  E..,..@.5..'c.".
        0x0010:  c0a8 0231 c357 dba5 c166 9f95 d3e0 94ec  ...1.W...f......
        0x0020:  6012 faf0 eac1 0000 0204 05ac 0000       `.............
23:55:26.443570 IP (tos 0x0, ttl  53, id 0, offset 0, flags [DF], proto: TCP (6), length: 44) 99.236.34.223.50007 > 192.168.2.49.56229: S, cksum 0xeac1 (correct), 3244728213:3244728213(0) ack 3554710764 win 64240 <mss 1452>
        0x0000:  4500 002c 0000 4000 3506 fc27 63ec 22df  E..,..@.5..'c.".
        0x0010:  c0a8 0231 c357 dba5 c166 9f95 d3e0 94ec  ...1.W...f......
        0x0020:  6012 faf0 eac1 0000 0204 05ac 0000       `.............

9 packets captured
3025 packets received by filter
0 packets dropped by kernel